{
  "contractName": "UserController",
  "abi": [
    {
      "inputs": [],
      "name": "ownerAddr",
      "outputs": [
        {
          "internalType": "address",
          "name": "",
          "type": "address"
        }
      ],
      "stateMutability": "view",
      "type": "function",
      "constant": true
    },
    {
      "inputs": [
        {
          "internalType": "address",
          "name": "_managerAddr",
          "type": "address"
        }
      ],
      "name": "setManagerAddr",
      "outputs": [],
      "stateMutability": "nonpayable",
      "type": "function"
    },
    {
      "inputs": [
        {
          "internalType": "address",
          "name": "_newOwner",
          "type": "address"
        }
      ],
      "name": "transferOwnership",
      "outputs": [],
      "stateMutability": "nonpayable",
      "type": "function"
    },
    {
      "inputs": [
        {
          "internalType": "bytes32",
          "name": "_username",
          "type": "bytes32"
        }
      ],
      "name": "createUser",
      "outputs": [
        {
          "internalType": "uint256",
          "name": "",
          "type": "uint256"
        }
      ],
      "stateMutability": "nonpayable",
      "type": "function"
    }
  ],
  "bytecode": "0x608060405234801561001057600080fd5b50336000806101000a81548173ffffffffffffffffffffffffffffffffffffffff021916908373ffffffffffffffffffffffffffffffffffffffff160217905550610682806100606000396000f3fe608060405234801561001057600080fd5b506004361061004c5760003560e01c80637978b231146100515780639c675eaa1461006d578063abf7bfd81461008b578063f2fde38b146100bb575b600080fd5b61006b6004803603810190610066919061041c565b6100d7565b005b610075610173565b6040516100829190610458565b60405180910390f35b6100a560048036038101906100a091906104a9565b610197565b6040516100b291906104ef565b60405180910390f35b6100d560048036038101906100d0919061041c565b6102e4565b005b60008054906101000a900473ffffffffffffffffffffffffffffffffffffffff1673ffffffffffffffffffffffffffffffffffffffff163373ffffffffffffffffffffffffffffffffffffffff161461012f57600080fd5b80600160006101000a81548173ffffffffffffffffffffffffffffffffffffffff021916908373ffffffffffffffffffffffffffffffffffffffff16021790555050565b60008054906101000a900473ffffffffffffffffffffffffffffffffffffffff1681565b600080600160009054906101000a900473ffffffffffffffffffffffffffffffffffffffff16905060008173ffffffffffffffffffffffffffffffffffffffff1663bf40fac16040518163ffffffff1660e01b81526004016101f890610567565b60206040518083038186803b15801561021057600080fd5b505afa158015610224573d6000803e3d6000fd5b505050506040513d601f19601f82011682018060405250810190610248919061059c565b905060008190508073ffffffffffffffffffffffffffffffffffffffff1663abf7bfd8866040518263ffffffff1660e01b815260040161028891906105d8565b602060405180830381600087803b1580156102a257600080fd5b505af11580156102b6573d6000803e3d6000fd5b505050506040513d601f19601f820116820180604052508101906102da919061061f565b9350505050919050565b60008054906101000a900473ffffffffffffffffffffffffffffffffffffffff1673ffffffffffffffffffffffffffffffffffffffff163373ffffffffffffffffffffffffffffffffffffffff161461033c57600080fd5b600073ffffffffffffffffffffffffffffffffffffffff168173ffffffffffffffffffffffffffffffffffffffff16141561037657600080fd5b806000806101000a81548173ffffffffffffffffffffffffffffffffffffffff021916908373ffffffffffffffffffffffffffffffffffffffff16021790555050565b600080fd5b600073ffffffffffffffffffffffffffffffffffffffff82169050919050565b60006103e9826103be565b9050919050565b6103f9816103de565b811461040457600080fd5b50565b600081359050610416816103f0565b92915050565b600060208284031215610432576104316103b9565b5b600061044084828501610407565b91505092915050565b610452816103de565b82525050565b600060208201905061046d6000830184610449565b92915050565b6000819050919050565b61048681610473565b811461049157600080fd5b50565b6000813590506104a38161047d565b92915050565b6000602082840312156104bf576104be6103b9565b5b60006104cd84828501610494565b91505092915050565b6000819050919050565b6104e9816104d6565b82525050565b600060208201905061050460008301846104e0565b92915050565b600082825260208201905092915050565b7f5573657253746f72616765000000000000000000000000000000000000000000600082015250565b6000610551600b8361050a565b915061055c8261051b565b602082019050919050565b6000602082019050818103600083015261058081610544565b9050919050565b600081519050610596816103f0565b92915050565b6000602082840312156105b2576105b16103b9565b5b60006105c084828501610587565b91505092915050565b6105d281610473565b82525050565b60006020820190506105ed60008301846105c9565b92915050565b6105fc816104d6565b811461060757600080fd5b50565b600081519050610619816105f3565b92915050565b600060208284031215610635576106346103b9565b5b60006106438482850161060a565b9150509291505056fea2646970667358221220b43be145a3c80f7d20f5b77aa5e8ccc2b50207f448a107268a2455caa77a212f64736f6c63430008090033",
  "immutableReferences": {},
  "source": "// SPDX-License-Identifier: MIT\npragma solidity ^0.8.0;\n\nimport '../helper/BaseController.sol' ;\nimport '../ContractManager.sol';\nimport './UserStorage.sol';\n\ncontract UserController is BaseController {\n    function createUser (bytes32 _username) public returns (uint) {\n        ContractManager _manager = ContractManager(managerAddr);\n\n        address _userStorageAddr = _manager.getAddress(\"UserStorage\");\n        UserStorage _userStorage = UserStorage(_userStorageAddr);\n\n        return _userStorage.createUser(_username);\n\n\n    }\n\n\n}\n",
  "sourcePath": "/Users/user/tweether/contracts/users/UserController.sol",
  "compiler": {
    "name": "solc",
    "version": "0.8.9+commit.e5eed63a.Emscripten.clang"
  },
  "schemaVersion": "3.4.3",
  "updatedAt": "2021-11-02T11:11:08.632Z",
  "networkType": "ethereum",
  "devdoc": {
    "kind": "dev",
    "methods": {},
    "version": 1
  },
  "userdoc": {
    "kind": "user",
    "methods": {},
    "version": 1
  }
}